{
  "contractName": "fileTransfer",
  "abi": [
    {
      "anonymous": false,
      "inputs": [
        {
          "indexed": false,
          "internalType": "uint256",
          "name": "id",
          "type": "uint256"
        },
        {
          "indexed": false,
          "internalType": "address",
          "name": "addr",
          "type": "address"
        }
      ],
      "name": "downloadSuccess",
      "type": "event"
    },
    {
      "anonymous": false,
      "inputs": [
        {
          "indexed": false,
          "internalType": "uint256",
          "name": "id",
          "type": "uint256"
        },
        {
          "indexed": false,
          "internalType": "address",
          "name": "addr",
          "type": "address"
        },
        {
          "indexed": false,
          "internalType": "uint256",
          "name": "score",
          "type": "uint256"
        }
      ],
      "name": "evaluateSuccess",
      "type": "event"
    },
    {
      "anonymous": false,
      "inputs": [
        {
          "indexed": false,
          "internalType": "uint256[]",
          "name": "commentedFilesId",
          "type": "uint256[]"
        }
      ],
      "name": "getCommentFileSuccess",
      "type": "event"
    },
    {
      "anonymous": false,
      "inputs": [
        {
          "indexed": false,
          "internalType": "address",
          "name": "commentator",
          "type": "address"
        },
        {
          "indexed": false,
          "internalType": "uint256",
          "name": "date",
          "type": "uint256"
        },
        {
          "indexed": false,
          "internalType": "uint256",
          "name": "score",
          "type": "uint256"
        },
        {
          "indexed": false,
          "internalType": "string",
          "name": "content",
          "type": "string"
        }
      ],
      "name": "getCommentInfoSuccess",
      "type": "event"
    },
    {
      "anonymous": false,
      "inputs": [
        {
          "indexed": false,
          "internalType": "uint256",
          "name": "filesCommentsId",
          "type": "uint256"
        }
      ],
      "name": "getCommentLengthSuccess",
      "type": "event"
    },
    {
      "anonymous": false,
      "inputs": [
        {
          "indexed": false,
          "internalType": "uint256[]",
          "name": "downloadFilesID",
          "type": "uint256[]"
        }
      ],
      "name": "getDownloadFileSuccess",
      "type": "event"
    },
    {
      "anonymous": false,
      "inputs": [
        {
          "indexed": false,
          "internalType": "uint256",
          "name": "downloadNum",
          "type": "uint256"
        }
      ],
      "name": "getDownloadNumsSuccess",
      "type": "event"
    },
    {
      "anonymous": false,
      "inputs": [
        {
          "indexed": false,
          "internalType": "uint256",
          "name": "filesLength",
          "type": "uint256"
        }
      ],
      "name": "getFileLengthSuccess",
      "type": "event"
    },
    {
      "anonymous": false,
      "inputs": [
        {
          "indexed": false,
          "internalType": "address",
          "name": "fileOwner",
          "type": "address"
        },
        {
          "indexed": false,
          "internalType": "string",
          "name": "nameWriter",
          "type": "string"
        },
        {
          "indexed": false,
          "internalType": "string",
          "name": "style",
          "type": "string"
        },
        {
          "indexed": false,
          "internalType": "uint256",
          "name": "uploadAge",
          "type": "uint256"
        },
        {
          "indexed": false,
          "internalType": "string",
          "name": "intro",
          "type": "string"
        },
        {
          "indexed": false,
          "internalType": "string",
          "name": "cover",
          "type": "string"
        },
        {
          "indexed": false,
          "internalType": "uint256",
          "name": "score",
          "type": "uint256"
        },
        {
          "indexed": false,
          "internalType": "uint256",
          "name": "comment",
          "type": "uint256"
        }
      ],
      "name": "getFilesInfoSuccess",
      "type": "event"
    },
    {
      "anonymous": false,
      "inputs": [
        {
          "indexed": false,
          "internalType": "uint256[]",
          "name": "uploadFilesId",
          "type": "uint256[]"
        }
      ],
      "name": "getPublishFilesuccess",
      "type": "event"
    },
    {
      "anonymous": false,
      "inputs": [
        {
          "indexed": false,
          "internalType": "bool",
          "name": "Evaluated",
          "type": "bool"
        }
      ],
      "name": "isEvaluatedSuccess",
      "type": "event"
    },
    {
      "anonymous": false,
      "inputs": [
        {
          "indexed": false,
          "internalType": "bool",
          "name": "myFile",
          "type": "bool"
        }
      ],
      "name": "isMyFileSuccess",
      "type": "event"
    },
    {
      "anonymous": false,
      "inputs": [
        {
          "indexed": false,
          "internalType": "uint256",
          "name": "id",
          "type": "uint256"
        },
        {
          "indexed": false,
          "internalType": "string",
          "name": "nameWriter",
          "type": "string"
        },
        {
          "indexed": false,
          "internalType": "string",
          "name": "style",
          "type": "string"
        },
        {
          "indexed": false,
          "internalType": "uint256",
          "name": "uploadAge",
          "type": "uint256"
        },
        {
          "indexed": false,
          "internalType": "string",
          "name": "intro",
          "type": "string"
        },
        {
          "indexed": false,
          "internalType": "string",
          "name": "cover",
          "type": "string"
        }
      ],
      "name": "publishFileSuccess",
      "type": "event"
    },
    {
      "payable": false,
      "stateMutability": "nonpayable",
      "type": "fallback"
    },
    {
      "constant": false,
      "inputs": [],
      "name": "getDownloadFile",
      "outputs": [],
      "payable": false,
      "stateMutability": "nonpayable",
      "type": "function"
    },
    {
      "constant": false,
      "inputs": [],
      "name": "getCommentFile",
      "outputs": [],
      "payable": false,
      "stateMutability": "nonpayable",
      "type": "function"
    },
    {
      "constant": false,
      "inputs": [],
      "name": "getPublishFile",
      "outputs": [],
      "payable": false,
      "stateMutability": "nonpayable",
      "type": "function"
    },
    {
      "constant": false,
      "inputs": [],
      "name": "getFileLength",
      "outputs": [],
      "payable": false,
      "stateMutability": "nonpayable",
      "type": "function"
    },
    {
      "constant": false,
      "inputs": [
        {
          "internalType": "uint256",
          "name": "id",
          "type": "uint256"
        }
      ],
      "name": "getCommentLength",
      "outputs": [],
      "payable": false,
      "stateMutability": "nonpayable",
      "type": "function"
    },
    {
      "constant": false,
      "inputs": [
        {
          "internalType": "uint256",
          "name": "id",
          "type": "uint256"
        }
      ],
      "name": "getDownloadNums",
      "outputs": [],
      "payable": false,
      "stateMutability": "nonpayable",
      "type": "function"
    },
    {
      "constant": false,
      "inputs": [
        {
          "internalType": "uint256",
          "name": "id",
          "type": "uint256"
        }
      ],
      "name": "getFilesInfo",
      "outputs": [],
      "payable": false,
      "stateMutability": "nonpayable",
      "type": "function"
    },
    {
      "constant": false,
      "inputs": [
        {
          "internalType": "uint256",
          "name": "fileId",
          "type": "uint256"
        },
        {
          "internalType": "uint256",
          "name": "commentId",
          "type": "uint256"
        }
      ],
      "name": "getCommentInfo",
      "outputs": [],
      "payable": false,
      "stateMutability": "nonpayable",
      "type": "function"
    },
    {
      "constant": false,
      "inputs": [
        {
          "internalType": "uint256",
          "name": "id",
          "type": "uint256"
        }
      ],
      "name": "isEvaluated",
      "outputs": [],
      "payable": false,
      "stateMutability": "nonpayable",
      "type": "function"
    },
    {
      "constant": false,
      "inputs": [
        {
          "internalType": "uint256",
          "name": "id",
          "type": "uint256"
        }
      ],
      "name": "isMyFile",
      "outputs": [],
      "payable": false,
      "stateMutability": "nonpayable",
      "type": "function"
    },
    {
      "constant": false,
      "inputs": [
        {
          "internalType": "string",
          "name": "nameWriter",
          "type": "string"
        },
        {
          "internalType": "string",
          "name": "style",
          "type": "string"
        },
        {
          "internalType": "uint256",
          "name": "",
          "type": "uint256"
        },
        {
          "internalType": "string",
          "name": "intro",
          "type": "string"
        },
        {
          "internalType": "string",
          "name": "cover",
          "type": "string"
        }
      ],
      "name": "publishFileInfo",
      "outputs": [],
      "payable": false,
      "stateMutability": "nonpayable",
      "type": "function"
    },
    {
      "constant": false,
      "inputs": [
        {
          "internalType": "uint256",
          "name": "id",
          "type": "uint256"
        },
        {
          "internalType": "uint256",
          "name": "score",
          "type": "uint256"
        },
        {
          "internalType": "string",
          "name": "content",
          "type": "string"
        }
      ],
      "name": "evaluate",
      "outputs": [],
      "payable": false,
      "stateMutability": "nonpayable",
      "type": "function"
    },
    {
      "constant": false,
      "inputs": [
        {
          "internalType": "uint256",
          "name": "id",
          "type": "uint256"
        }
      ],
      "name": "downloadFile",
      "outputs": [],
      "payable": false,
      "stateMutability": "nonpayable",
      "type": "function"
    }
  ],
  "bytecode": "0x60806040526001805534801561001457600080fd5b50611829806100246000396000f3fe608060405234801561001057600080fd5b50600436106100cf5760003560e01c80639526419a1161008c578063c80e469f11610066578063c80e469f146102b1578063e4e820451461053b578063f5a0529714610569578063fba7d2a514610573576100cf565b80639526419a146102415780639fae30101461024b578063b617719d14610283576100cf565b806308daeecd146100d45780631f5a5cd5146100de57806334147df11461010c578063550ca61d146101165780637157eb661461014457806393df273814610213575b600080fd5b6100dc6105a1565b005b61010a600480360360208110156100f457600080fd5b8101908080359060200190929190505050610659565b005b6101146106b1565b005b6101426004803603602081101561012c57600080fd5b8101908080359060200190929190505050610769565b005b6102116004803603606081101561015a57600080fd5b8101908080359060200190929190803590602001909291908035906020019064010000000081111561018b57600080fd5b82018360208201111561019d57600080fd5b803590602001918460018302840111640100000000831117156101bf57600080fd5b91908080601f016020809104026020016040519081016040528093929190818152602001838380828437600081840152601f19601f820116905080830192505050505050509192919290505050610890565b005b61023f6004803603602081101561022957600080fd5b8101908080359060200190929190505050610aae565b005b610249610bf9565b005b6102816004803603604081101561026157600080fd5b810190808035906020019092919080359060200190929190505050610c37565b005b6102af6004803603602081101561029957600080fd5b8101908080359060200190929190505050610dd5565b005b610539600480360360a08110156102c757600080fd5b81019080803590602001906401000000008111156102e457600080fd5b8201836020820111156102f657600080fd5b8035906020019184600183028401116401000000008311171561031857600080fd5b91908080601f016020809104026020016040519081016040528093929190818152602001838380828437600081840152601f19601f8201169050808301925050505050505091929192908035906020019064010000000081111561037b57600080fd5b82018360208201111561038d57600080fd5b803590602001918460018302840111640100000000831117156103af57600080fd5b91908080601f016020809104026020016040519081016040528093929190818152602001838380828437600081840152601f19601f820116905080830192505050505050509192919290803590602001909291908035906020019064010000000081111561041c57600080fd5b82018360208201111561042e57600080fd5b8035906020019184600183028401116401000000008311171561045057600080fd5b91908080601f016020809104026020016040519081016040528093929190818152602001838380828437600081840152601f19601f820116905080830192505050505050509192919290803590602001906401000000008111156104b357600080fd5b8201836020820111156104c557600080fd5b803590602001918460018302840111640100000000831117156104e757600080fd5b91908080601f016020809104026020016040519081016040528093929190818152602001838380828437600081840152601f19601f8201169050808301925050505050505091929192905050506110e7565b005b6105676004803603602081101561055157600080fd5b81019080803590602001909291905050506114d2565b005b610571611549565b005b61059f6004803603602081101561058957600080fd5b8101908080359060200190929190505050611601565b005b7f7cb2248c555037be55154d653d95b1842b0ffa9dae72a1938a13832603782788600260003373ffffffffffffffffffffffffffffffffffffffff1673ffffffffffffffffffffffffffffffffffffffff1681526020019081526020016000206000016040518080602001828103825283818154815260200191508054801561064957602002820191906000526020600020905b815481526020019060010190808311610635575b50509250505060405180910390a1565b7f702204ec051cb26f5dc829d862643cec58f79049896bed68a5f90466529a32506000828154811061068757fe5b90600052602060002090600a0201600701546040518082815260200191505060405180910390a150565b7f8b89a5bccc21aafa2dd9c46c7f1882eaffe3840f37ce2a2efac2ae65aa7e167b600260003373ffffffffffffffffffffffffffffffffffffffff1673ffffffffffffffffffffffffffffffffffffffff1681526020019081526020016000206002016040518080602001828103825283818154815260200191508054801561075957602002820191906000526020600020905b815481526020019060010190808311610745575b50509250505060405180910390a1565b600080828154811061077757fe5b90600052602060002090600a0201905060008090505b816007015481101561084f573373ffffffffffffffffffffffffffffffffffffffff1682600801600083815260200190815260200160002060000160009054906101000a900473ffffffffffffffffffffffffffffffffffffffff1673ffffffffffffffffffffffffffffffffffffffff161415610842577f5680533b1afc5ac012341d2370c4179996b61705b80ec3304f78b992cdea05ab6001604051808215151515815260200191505060405180910390a15b808060010191505061078d565b507f5680533b1afc5ac012341d2370c4179996b61705b80ec3304f78b992cdea05ab6000604051808215151515815260200191505060405180910390a15050565b60008054905083106108a157600080fd5b60008084815481106108af57fe5b90600052602060002090600a02019050826000111580156108d15750600a8311155b6108da57600080fd5b82816006016000828254019250508190555060405180608001604052803373ffffffffffffffffffffffffffffffffffffffff1681526020014281526020018481526020018381525081600801600083600701600081548092919060010191905055815260200190815260200160002060008201518160000160006101000a81548173ffffffffffffffffffffffffffffffffffffffff021916908373ffffffffffffffffffffffffffffffffffffffff160217905550602082015181600101556040820151816002015560608201518160030190805190602001906109c19291906116f4565b50905050600260003373ffffffffffffffffffffffffffffffffffffffff1673ffffffffffffffffffffffffffffffffffffffff1681526020019081526020016000206002018490806001815401808255809150509060018203906000526020600020016000909192909190915055507f0188d9c8488eedcb649a5a94479208fdd077082f814ffe3df1b1b5c7c121631184338360060154604051808481526020018373ffffffffffffffffffffffffffffffffffffffff1673ffffffffffffffffffffffffffffffffffffffff168152602001828152602001935050505060405180910390a150505050565b6000805490508110610abf57600080fd5b6000808281548110610acd57fe5b90600052602060002090600a020190506040518060200160405280600160008154809291906001019190505581525081600901600080815260200190815260200160002060008201518160000155905050600260003373ffffffffffffffffffffffffffffffffffffffff1673ffffffffffffffffffffffffffffffffffffffff1681526020019081526020016000206001018290806001815401808255809150509060018203906000526020600020016000909192909190915055507fc8fcae5f844b60cc88d845680c0c908b51c00788207f97ab062d90d71cf0c3488233604051808381526020018273ffffffffffffffffffffffffffffffffffffffff1673ffffffffffffffffffffffffffffffffffffffff1681526020019250505060405180910390a15050565b7f83a34540803ed52a5c042de2fa1c340c0d9288fe71cf1f927b3d9994f6eb74026000805490506040518082815260200191505060405180910390a1565b6000805490508210610c4857600080fd5b60008281548110610c5557fe5b90600052602060002090600a0201600701548110610c7257600080fd5b6000808381548110610c8057fe5b90600052602060002090600a0201600801600083815260200190815260200160002090507f56bb7a60a8502827ee4681aff47c1ebaa12fc767a047212aafd20e338bcf51e28160000160009054906101000a900473ffffffffffffffffffffffffffffffffffffffff168260010154836002015484600301604051808573ffffffffffffffffffffffffffffffffffffffff1673ffffffffffffffffffffffffffffffffffffffff16815260200184815260200183815260200180602001828103825283818154600181600116156101000203166002900481526020019150805460018160011615610100020316600290048015610dbf5780601f10610d9457610100808354040283529160200191610dbf565b820191906000526020600020905b815481529060010190602001808311610da257829003601f168201915b50509550505050505060405180910390a1505050565b6000805490508110610de657600080fd5b6000808281548110610df457fe5b90600052602060002090600a020190507f08e8529984d8777d5a88f560d19f01b934091cdfd3b5735b057498926b28aa368160000160009054906101000a900473ffffffffffffffffffffffffffffffffffffffff1682600101836002018460030154856004018660050187600601548860070154604051808973ffffffffffffffffffffffffffffffffffffffff1673ffffffffffffffffffffffffffffffffffffffff1681526020018060200180602001888152602001806020018060200187815260200186815260200185810385528c818154600181600116156101000203166002900481526020019150805460018160011615610100020316600290048015610f425780601f10610f1757610100808354040283529160200191610f42565b820191906000526020600020905b815481529060010190602001808311610f2557829003601f168201915b505085810384528b818154600181600116156101000203166002900481526020019150805460018160011615610100020316600290048015610fc55780601f10610f9a57610100808354040283529160200191610fc5565b820191906000526020600020905b815481529060010190602001808311610fa857829003601f168201915b50508581038352898181546001816001161561010002031660029004815260200191508054600181600116156101000203166002900480156110485780601f1061101d57610100808354040283529160200191611048565b820191906000526020600020905b81548152906001019060200180831161102b57829003601f168201915b50508581038252888181546001816001161561010002031660029004815260200191508054600181600116156101000203166002900480156110cb5780601f106110a0576101008083540402835291602001916110cb565b820191906000526020600020905b8154815290600101906020018083116110ae57829003601f168201915b50509c5050505050505050505050505060405180910390a15050565b6000808054905090506110f8611774565b6040518061010001604052803373ffffffffffffffffffffffffffffffffffffffff16815260200188815260200187815260200142815260200185815260200184815260200160008152602001600081525090506000819080600181540180825580915050906001820390600052602060002090600a02016000909192909190915060008201518160000160006101000a81548173ffffffffffffffffffffffffffffffffffffffff021916908373ffffffffffffffffffffffffffffffffffffffff16021790555060208201518160010190805190602001906111dd9291906116f4565b5060408201518160020190805190602001906111fa9291906116f4565b506060820151816003015560808201518160040190805190602001906112219291906116f4565b5060a082015181600501908051906020019061123e9291906116f4565b5060c0820151816006015560e08201518160070155505050600260003373ffffffffffffffffffffffffffffffffffffffff1673ffffffffffffffffffffffffffffffffffffffff1681526020019081526020016000206000018290806001815401808255809150509060018203906000526020600020016000909192909190915055507fe081f0024702d6dc1d6b8e2f132c350199f960675d63e4b7b584284bff50293e8282602001518360400151846060015185608001518660a00151604051808781526020018060200180602001868152602001806020018060200185810385528a818151815260200191508051906020019080838360005b8381101561135557808201518184015260208101905061133a565b50505050905090810190601f1680156113825780820380516001836020036101000a031916815260200191505b50858103845289818151815260200191508051906020019080838360005b838110156113bb5780820151818401526020810190506113a0565b50505050905090810190601f1680156113e85780820380516001836020036101000a031916815260200191505b50858103835287818151815260200191508051906020019080838360005b83811015611421578082015181840152602081019050611406565b50505050905090810190601f16801561144e5780820380516001836020036101000a031916815260200191505b50858103825286818151815260200191508051906020019080838360005b8381101561148757808201518184015260208101905061146c565b50505050905090810190601f1680156114b45780820380516001836020036101000a031916815260200191505b509a505050505050505050505060405180910390a150505050505050565b60008082815481106114e057fe5b90600052602060002090600a02019050600081600901600080815260200190815260200160002090507f4a6e73b803221b305f665cfe66bf78a56faa0d57b3bf213de7284bb9da3865c881600001546040518082815260200191505060405180910390a1505050565b7fb886d2e2176e6dcdadcbef1186882db35eda48b2073430c331df7040c6147714600260003373ffffffffffffffffffffffffffffffffffffffff1673ffffffffffffffffffffffffffffffffffffffff168152602001908152602001600020600101604051808060200182810382528381815481526020019150805480156115f157602002820191906000526020600020905b8154815260200190600101908083116115dd575b50509250505060405180910390a1565b600080828154811061160f57fe5b90600052602060002090600a020190503373ffffffffffffffffffffffffffffffffffffffff168160000160009054906101000a900473ffffffffffffffffffffffffffffffffffffffff1673ffffffffffffffffffffffffffffffffffffffff1614156116b4577f5950946c4ed5f0c607a3c55dad4f5709ed79f9574da7c6568a406907651876a36001604051808215151515815260200191505060405180910390a15b7f5950946c4ed5f0c607a3c55dad4f5709ed79f9574da7c6568a406907651876a36000604051808215151515815260200191505060405180910390a15050565b828054600181600116156101000203166002900490600052602060002090601f016020900481019282601f1061173557805160ff1916838001178555611763565b82800160010185558215611763579182015b82811115611762578251825591602001919060010190611747565b5b50905061177091906117cf565b5090565b604051806101000160405280600073ffffffffffffffffffffffffffffffffffffffff168152602001606081526020016060815260200160008152602001606081526020016060815260200160008152602001600081525090565b6117f191905b808211156117ed5760008160009055506001016117d5565b5090565b9056fea265627a7a7231582096d052b2c383d04d758f2e8fca7df80478540fcbfc2568020441cca2121ff69c64736f6c63430005100032",
  "source": "// SPDX-License-Identifier: MIT\npragma solidity ^0.5.16;\n//pragma experimental ABIEncoderV2;\n\ncontract fileTransfer{\n    struct OptFile{\n        uint[] uploadFile;//\n        uint[] downloadFile;//\n        uint[] commentedFile;//\n    }\n\n    struct File{\n        address owner;//\n        string nameWriter;//\n        string style;//\n        uint uploadAge;//\n        string intro;//\n        string cover;//\n\n        uint score;//\n        uint comment;//\n\n        mapping(uint => Comment) comments;//\n        mapping(uint => DownloadNums) downloadNums;//\n    }\n\n    struct  Comment{\n        address commentator; //\n        uint date; // \n        uint score; //\n        string content; //\n    }\n\n    struct DownloadNums{\n        uint downloadNum; //\n    }\n\n    File[] files;\n    uint tempNum = 1;\n    mapping(address => OptFile) FilesPool;\n    \n    //\n    event publishFileSuccess(\n        uint id, \n        string nameWriter, \n        string style, \n        uint uploadAge,\n        string intro, \n        string cover\n        );\n\n    //\n    event evaluateSuccess(uint id,address addr,uint score);\n\n    //\n    event downloadSuccess(uint id, address addr);\n\n    //\n    event getFilesInfoSuccess(\n        address fileOwner, \n        string nameWriter, \n        string style, \n        uint uploadAge,\n        string intro,\n        string cover, \n        uint score, \n        uint comment\n    );\n\n    //\n    event getDownloadFileSuccess(uint[] downloadFilesID);\n\n    //\n    event getCommentFileSuccess(uint[]  commentedFilesId);\n\n    //\n    event getPublishFilesuccess(uint[] uploadFilesId);\n\n    //\n    event getFileLengthSuccess(uint filesLength);\n\n    //\n    event getCommentLengthSuccess(uint filesCommentsId);\n\n    //\n    event getDownloadNumsSuccess(uint downloadNum);\n\n    //\n    event getCommentInfoSuccess(address commentator,uint date , uint score , string content);\n\n    //  \n    event isEvaluatedSuccess(bool Evaluated);\n\n    //\n    event isMyFileSuccess(bool myFile);\n\n    //\n    function getDownloadFile() public {\n        emit getDownloadFileSuccess(FilesPool[msg.sender].downloadFile);\n    }\n\n\n    //\n    function getCommentFile() public  {\n        emit getCommentFileSuccess(FilesPool[msg.sender].commentedFile);\n    }\n \n\n    //\n    function getPublishFile() public  {\n        emit getPublishFilesuccess(FilesPool[msg.sender].uploadFile);\n    }\n\n    //\n    function getFileLength() public{\n        emit getFileLengthSuccess(files.length);\n    }\n\n    //\n    function getCommentLength(uint id) public {\n        emit getCommentLengthSuccess(files[id].comment);\n    }\n\n    //\n    function getDownloadNums(uint id) public {\n        File storage file = files[id];\n        DownloadNums storage d = file.downloadNums[0];\n        emit getDownloadNumsSuccess(d.downloadNum);\n    }\n\n    //\n    function getFilesInfo(uint id) public  {\n        require(id < files.length);\n        //,\n        File storage file = files[id];\n        //uint storage id = id;\n        emit getFilesInfoSuccess(file.owner,file.nameWriter,file.style,file.uploadAge,file.intro,file.cover,file.score,file.comment);\n    }\n\n    //\n    function getCommentInfo(uint fileId,uint commentId) public  {\n        require(fileId < files.length);\n        require(commentId < files[fileId].comment);\n        Comment storage c = files[fileId].comments[commentId];\n        emit getCommentInfoSuccess(c.commentator, c.date, c.score,c.content);\n    }\n\n    //  \n    function isEvaluated(uint id) public {\n        File storage file = files[id];\n        for(uint i = 0; i < file.comment; i++)\n            if(file.comments[i].commentator == msg.sender)\n                //return true; // \n                emit isEvaluatedSuccess(true);\n        //return false; // \n        emit isEvaluatedSuccess(false);\n    }\n\n    //\n    function isMyFile(uint id) public {\n        File storage file = files[id];\n        if(file.owner == msg.sender)\n            //return true;\n            emit isMyFileSuccess(true);\n        //return false;\n        emit isMyFileSuccess(false);\n    }\n\n    //\n    function publishFileInfo(\n        string memory nameWriter, \n        string memory style, \n        uint,\n        string memory intro,\n        string memory cover) \n        public {\n        uint id = files.length;\n        File memory file = File(msg.sender,nameWriter,style,block.timestamp,intro,cover,0,0);\n        files.push(file);\n        FilesPool[msg.sender].uploadFile.push(id);\n        emit publishFileSuccess(id,file.nameWriter,file.style,file.uploadAge,file.intro,file.cover);\n    }\n\n    //\n    function evaluate(uint id, uint score, string memory content) public{\n        require(id < files.length);\n        // \n        File storage file = files[id];\n        //require(file.owner != msg.sender && !isEvaluated(id)); // \n        require(0 <= score && score <= 10); // \n        // \n        file.score += score;\n        file.comments[file.comment++] = Comment(msg.sender, now, score, content);\n        FilesPool[msg.sender].commentedFile.push(id);\n        emit evaluateSuccess(id, msg.sender, file.score);\n    }\n\n    //\n    function downloadFile(uint id) public{\n        require(id < files.length);\n        File storage file = files[id];\n        //require(file.owner != msg.sender && !isBorrowed(id)); // \n        file.downloadNums[0] = DownloadNums(tempNum++);\n        FilesPool[msg.sender].downloadFile.push(id);\n        emit  downloadSuccess(id, msg.sender);\n\n    }\n\n    //\n    function hashCompareInternal(string memory a, string memory b) internal returns (bool) {\n        return keccak256(abi.encodePacked(a)) == keccak256(abi.encodePacked(b));\n    }\n\n    function() external {\n        revert();\n    }\n}\n",
  "sourcePath": "C:\\Users\\SUN\\Desktop\\react\\react_node_conctract\\contracts\\fileTransfer.sol",
  "compiler": {
    "name": "solc",
    "version": "0.5.16+commit.9c3226ce.Emscripten.clang"
  },
  "schemaVersion": "3.4.7",
  "updatedAt": "2022-05-08T08:41:00.458Z",
  "networkType": "ethereum",
  "devdoc": {
    "methods": {}
  },
  "userdoc": {
    "methods": {}
  }
}