{
  "contractName": "fileTransfer",
  "abi": [
    {
      "anonymous": false,
      "inputs": [
        {
          "indexed": false,
          "internalType": "uint256",
          "name": "id",
          "type": "uint256"
        },
        {
          "indexed": false,
          "internalType": "address",
          "name": "addr",
          "type": "address"
        }
      ],
      "name": "downloadSuccess",
      "type": "event"
    },
    {
      "anonymous": false,
      "inputs": [
        {
          "indexed": false,
          "internalType": "uint256",
          "name": "id",
          "type": "uint256"
        },
        {
          "indexed": false,
          "internalType": "address",
          "name": "addr",
          "type": "address"
        },
        {
          "indexed": false,
          "internalType": "uint256",
          "name": "score",
          "type": "uint256"
        }
      ],
      "name": "evaluateSuccess",
      "type": "event"
    },
    {
      "anonymous": false,
      "inputs": [
        {
          "indexed": false,
          "internalType": "uint256",
          "name": "id",
          "type": "uint256"
        },
        {
          "indexed": false,
          "internalType": "string",
          "name": "nameWriter",
          "type": "string"
        },
        {
          "indexed": false,
          "internalType": "string",
          "name": "style",
          "type": "string"
        },
        {
          "indexed": false,
          "internalType": "uint256",
          "name": "uploadAge",
          "type": "uint256"
        },
        {
          "indexed": false,
          "internalType": "string",
          "name": "intro",
          "type": "string"
        },
        {
          "indexed": false,
          "internalType": "string",
          "name": "cover",
          "type": "string"
        }
      ],
      "name": "publishFileSuccess",
      "type": "event"
    },
    {
      "payable": false,
      "stateMutability": "nonpayable",
      "type": "fallback"
    },
    {
      "constant": true,
      "inputs": [],
      "name": "getDownloadFile",
      "outputs": [
        {
          "internalType": "uint256[]",
          "name": "",
          "type": "uint256[]"
        }
      ],
      "payable": false,
      "stateMutability": "view",
      "type": "function"
    },
    {
      "constant": true,
      "inputs": [],
      "name": "getCommentFile",
      "outputs": [
        {
          "internalType": "uint256[]",
          "name": "",
          "type": "uint256[]"
        }
      ],
      "payable": false,
      "stateMutability": "view",
      "type": "function"
    },
    {
      "constant": true,
      "inputs": [],
      "name": "getPublishFile",
      "outputs": [
        {
          "internalType": "uint256[]",
          "name": "",
          "type": "uint256[]"
        }
      ],
      "payable": false,
      "stateMutability": "view",
      "type": "function"
    },
    {
      "constant": true,
      "inputs": [],
      "name": "getFileLength",
      "outputs": [
        {
          "internalType": "uint256",
          "name": "",
          "type": "uint256"
        }
      ],
      "payable": false,
      "stateMutability": "view",
      "type": "function"
    },
    {
      "constant": true,
      "inputs": [
        {
          "internalType": "uint256",
          "name": "id",
          "type": "uint256"
        }
      ],
      "name": "getCommentLength",
      "outputs": [
        {
          "internalType": "uint256",
          "name": "",
          "type": "uint256"
        }
      ],
      "payable": false,
      "stateMutability": "view",
      "type": "function"
    },
    {
      "constant": true,
      "inputs": [
        {
          "internalType": "uint256",
          "name": "id",
          "type": "uint256"
        }
      ],
      "name": "getDownloadNums",
      "outputs": [
        {
          "internalType": "uint256",
          "name": "",
          "type": "uint256"
        }
      ],
      "payable": false,
      "stateMutability": "view",
      "type": "function"
    },
    {
      "constant": true,
      "inputs": [
        {
          "internalType": "uint256",
          "name": "id",
          "type": "uint256"
        }
      ],
      "name": "getFilesInfo",
      "outputs": [
        {
          "internalType": "address",
          "name": "",
          "type": "address"
        },
        {
          "internalType": "string",
          "name": "",
          "type": "string"
        },
        {
          "internalType": "string",
          "name": "",
          "type": "string"
        },
        {
          "internalType": "uint256",
          "name": "",
          "type": "uint256"
        },
        {
          "internalType": "string",
          "name": "",
          "type": "string"
        },
        {
          "internalType": "string",
          "name": "",
          "type": "string"
        },
        {
          "internalType": "uint256",
          "name": "",
          "type": "uint256"
        },
        {
          "internalType": "uint256",
          "name": "",
          "type": "uint256"
        }
      ],
      "payable": false,
      "stateMutability": "view",
      "type": "function"
    },
    {
      "constant": true,
      "inputs": [
        {
          "internalType": "uint256",
          "name": "fileId",
          "type": "uint256"
        },
        {
          "internalType": "uint256",
          "name": "commentId",
          "type": "uint256"
        }
      ],
      "name": "getCommentInfo",
      "outputs": [
        {
          "internalType": "address",
          "name": "",
          "type": "address"
        },
        {
          "internalType": "uint256",
          "name": "",
          "type": "uint256"
        },
        {
          "internalType": "uint256",
          "name": "",
          "type": "uint256"
        },
        {
          "internalType": "string",
          "name": "",
          "type": "string"
        }
      ],
      "payable": false,
      "stateMutability": "view",
      "type": "function"
    },
    {
      "constant": true,
      "inputs": [
        {
          "internalType": "uint256",
          "name": "id",
          "type": "uint256"
        }
      ],
      "name": "isEvaluated",
      "outputs": [
        {
          "internalType": "bool",
          "name": "",
          "type": "bool"
        }
      ],
      "payable": false,
      "stateMutability": "view",
      "type": "function"
    },
    {
      "constant": true,
      "inputs": [
        {
          "internalType": "uint256",
          "name": "id",
          "type": "uint256"
        }
      ],
      "name": "isMyFile",
      "outputs": [
        {
          "internalType": "bool",
          "name": "",
          "type": "bool"
        }
      ],
      "payable": false,
      "stateMutability": "view",
      "type": "function"
    },
    {
      "constant": false,
      "inputs": [
        {
          "internalType": "string",
          "name": "nameWriter",
          "type": "string"
        },
        {
          "internalType": "string",
          "name": "style",
          "type": "string"
        },
        {
          "internalType": "uint256",
          "name": "",
          "type": "uint256"
        },
        {
          "internalType": "string",
          "name": "intro",
          "type": "string"
        },
        {
          "internalType": "string",
          "name": "cover",
          "type": "string"
        }
      ],
      "name": "publishFileInfo",
      "outputs": [],
      "payable": false,
      "stateMutability": "nonpayable",
      "type": "function"
    },
    {
      "constant": false,
      "inputs": [
        {
          "internalType": "uint256",
          "name": "id",
          "type": "uint256"
        },
        {
          "internalType": "uint256",
          "name": "score",
          "type": "uint256"
        },
        {
          "internalType": "string",
          "name": "content",
          "type": "string"
        }
      ],
      "name": "evaluate",
      "outputs": [],
      "payable": false,
      "stateMutability": "nonpayable",
      "type": "function"
    },
    {
      "constant": false,
      "inputs": [
        {
          "internalType": "uint256",
          "name": "id",
          "type": "uint256"
        }
      ],
      "name": "downloadFile",
      "outputs": [],
      "payable": false,
      "stateMutability": "nonpayable",
      "type": "function"
    }
  ],
  "bytecode": "0x60806040526001805534801561001457600080fd5b50611a46806100246000396000f3fe608060405234801561001057600080fd5b50600436106100cf5760003560e01c80639526419a1161008c578063c80e469f11610066578063c80e469f1461065a578063e4e82045146108e4578063f5a0529714610926578063fba7d2a514610985576100cf565b80639526419a146103175780639fae301014610335578063b617719d14610427576100cf565b806308daeecd146100d45780631f5a5cd51461013357806334147df114610175578063550ca61d146101d45780637157eb661461021a57806393df2738146102e9575b600080fd5b6100dc6109cb565b6040518080602001828103825283818151815260200191508051906020019060200280838360005b8381101561011f578082015181840152602081019050610104565b505050509050019250505060405180910390f35b61015f6004803603602081101561014957600080fd5b8101908080359060200190929190505050610a63565b6040518082815260200191505060405180910390f35b61017d610a8a565b6040518080602001828103825283818151815260200191508051906020019060200280838360005b838110156101c05780820151818401526020810190506101a5565b505050509050019250505060405180910390f35b610200600480360360208110156101ea57600080fd5b8101908080359060200190929190505050610b22565b604051808215151515815260200191505060405180910390f35b6102e76004803603606081101561023057600080fd5b8101908080359060200190929190803590602001909291908035906020019064010000000081111561026157600080fd5b82018360208201111561027357600080fd5b8035906020019184600183028401116401000000008311171561029557600080fd5b91908080601f016020809104026020016040519081016040528093929190818152602001838380828437600081840152601f19601f820116905080830192505050505050509192919290505050610be4565b005b610315600480360360208110156102ff57600080fd5b8101908080359060200190929190505050610e02565b005b61031f610f4d565b6040518082815260200191505060405180910390f35b61036b6004803603604081101561034b57600080fd5b810190808035906020019092919080359060200190929190505050610f59565b604051808573ffffffffffffffffffffffffffffffffffffffff1673ffffffffffffffffffffffffffffffffffffffff16815260200184815260200183815260200180602001828103825283818151815260200191508051906020019080838360005b838110156103e95780820151818401526020810190506103ce565b50505050905090810190601f1680156104165780820380516001836020036101000a031916815260200191505b509550505050505060405180910390f35b6104536004803603602081101561043d57600080fd5b81019080803590602001909291905050506110ae565b604051808973ffffffffffffffffffffffffffffffffffffffff1673ffffffffffffffffffffffffffffffffffffffff1681526020018060200180602001888152602001806020018060200187815260200186815260200185810385528c818151815260200191508051906020019080838360005b838110156104e35780820151818401526020810190506104c8565b50505050905090810190601f1680156105105780820380516001836020036101000a031916815260200191505b5085810384528b818151815260200191508051906020019080838360005b8381101561054957808201518184015260208101905061052e565b50505050905090810190601f1680156105765780820380516001836020036101000a031916815260200191505b50858103835289818151815260200191508051906020019080838360005b838110156105af578082015181840152602081019050610594565b50505050905090810190601f1680156105dc5780820380516001836020036101000a031916815260200191505b50858103825288818151815260200191508051906020019080838360005b838110156106155780820151818401526020810190506105fa565b50505050905090810190601f1680156106425780820380516001836020036101000a031916815260200191505b509c5050505050505050505050505060405180910390f35b6108e2600480360360a081101561067057600080fd5b810190808035906020019064010000000081111561068d57600080fd5b82018360208201111561069f57600080fd5b803590602001918460018302840111640100000000831117156106c157600080fd5b91908080601f016020809104026020016040519081016040528093929190818152602001838380828437600081840152601f19601f8201169050808301925050505050505091929192908035906020019064010000000081111561072457600080fd5b82018360208201111561073657600080fd5b8035906020019184600183028401116401000000008311171561075857600080fd5b91908080601f016020809104026020016040519081016040528093929190818152602001838380828437600081840152601f19601f82011690508083019250505050505050919291929080359060200190929190803590602001906401000000008111156107c557600080fd5b8201836020820111156107d757600080fd5b803590602001918460018302840111640100000000831117156107f957600080fd5b91908080601f016020809104026020016040519081016040528093929190818152602001838380828437600081840152601f19601f8201169050808301925050505050505091929192908035906020019064010000000081111561085c57600080fd5b82018360208201111561086e57600080fd5b8035906020019184600183028401116401000000008311171561089057600080fd5b91908080601f016020809104026020016040519081016040528093929190818152602001838380828437600081840152601f19601f8201169050808301925050505050505091929192905050506113ba565b005b610910600480360360208110156108fa57600080fd5b81019080803590602001909291905050506117a5565b6040518082815260200191505060405180910390f35b61092e6117ec565b6040518080602001828103825283818151815260200191508051906020019060200280838360005b83811015610971578082015181840152602081019050610956565b505050509050019250505060405180910390f35b6109b16004803603602081101561099b57600080fd5b8101908080359060200190929190505050611884565b604051808215151515815260200191505060405180910390f35b6060600260003373ffffffffffffffffffffffffffffffffffffffff1673ffffffffffffffffffffffffffffffffffffffff168152602001908152602001600020600001805480602002602001604051908101604052809291908181526020018280548015610a5957602002820191906000526020600020905b815481526020019060010190808311610a45575b5050505050905090565b6000808281548110610a7157fe5b90600052602060002090600a0201600701549050919050565b6060600260003373ffffffffffffffffffffffffffffffffffffffff1673ffffffffffffffffffffffffffffffffffffffff168152602001908152602001600020600201805480602002602001604051908101604052809291908181526020018280548015610b1857602002820191906000526020600020905b815481526020019060010190808311610b04575b5050505050905090565b60008060008381548110610b3257fe5b90600052602060002090600a0201905060008090505b8160070154811015610bd8573373ffffffffffffffffffffffffffffffffffffffff1682600801600083815260200190815260200160002060000160009054906101000a900473ffffffffffffffffffffffffffffffffffffffff1673ffffffffffffffffffffffffffffffffffffffff161415610bcb57600192505050610bdf565b8080600101915050610b48565b5060009150505b919050565b6000805490508310610bf557600080fd5b6000808481548110610c0357fe5b90600052602060002090600a0201905082600011158015610c255750600a8311155b610c2e57600080fd5b82816006016000828254019250508190555060405180608001604052803373ffffffffffffffffffffffffffffffffffffffff1681526020014281526020018481526020018381525081600801600083600701600081548092919060010191905055815260200190815260200160002060008201518160000160006101000a81548173ffffffffffffffffffffffffffffffffffffffff021916908373ffffffffffffffffffffffffffffffffffffffff16021790555060208201518160010155604082015181600201556060820151816003019080519060200190610d15929190611911565b50905050600260003373ffffffffffffffffffffffffffffffffffffffff1673ffffffffffffffffffffffffffffffffffffffff1681526020019081526020016000206002018490806001815401808255809150509060018203906000526020600020016000909192909190915055507f0188d9c8488eedcb649a5a94479208fdd077082f814ffe3df1b1b5c7c121631184338360060154604051808481526020018373ffffffffffffffffffffffffffffffffffffffff1673ffffffffffffffffffffffffffffffffffffffff168152602001828152602001935050505060405180910390a150505050565b6000805490508110610e1357600080fd5b6000808281548110610e2157fe5b90600052602060002090600a020190506040518060200160405280600160008154809291906001019190505581525081600901600080815260200190815260200160002060008201518160000155905050600260003373ffffffffffffffffffffffffffffffffffffffff1673ffffffffffffffffffffffffffffffffffffffff1681526020019081526020016000206001018290806001815401808255809150509060018203906000526020600020016000909192909190915055507fc8fcae5f844b60cc88d845680c0c908b51c00788207f97ab062d90d71cf0c3488233604051808381526020018273ffffffffffffffffffffffffffffffffffffffff1673ffffffffffffffffffffffffffffffffffffffff1681526020019250505060405180910390a15050565b60008080549050905090565b600080600060606000805490508610610f7157600080fd5b60008681548110610f7e57fe5b90600052602060002090600a0201600701548510610f9b57600080fd5b6000808781548110610fa957fe5b90600052602060002090600a0201600801600087815260200190815260200160002090508060000160009054906101000a900473ffffffffffffffffffffffffffffffffffffffff168160010154826002015483600301808054600181600116156101000203166002900480601f0160208091040260200160405190810160405280929190818152602001828054600181600116156101000203166002900480156110955780601f1061106a57610100808354040283529160200191611095565b820191906000526020600020905b81548152906001019060200180831161107857829003601f168201915b5050505050905094509450945094505092959194509250565b6000606080600060608060008060008054905089106110cc57600080fd5b6000808a815481106110da57fe5b90600052602060002090600a020190508060000160009054906101000a900473ffffffffffffffffffffffffffffffffffffffff1681600101826002018360030154846004018560050186600601548760070154868054600181600116156101000203166002900480601f0160208091040260200160405190810160405280929190818152602001828054600181600116156101000203166002900480156111c35780601f10611198576101008083540402835291602001916111c3565b820191906000526020600020905b8154815290600101906020018083116111a657829003601f168201915b50505050509650858054600181600116156101000203166002900480601f01602080910402602001604051908101604052809291908181526020018280546001816001161561010002031660029004801561125f5780601f106112345761010080835404028352916020019161125f565b820191906000526020600020905b81548152906001019060200180831161124257829003601f168201915b50505050509550838054600181600116156101000203166002900480601f0160208091040260200160405190810160405280929190818152602001828054600181600116156101000203166002900480156112fb5780601f106112d0576101008083540402835291602001916112fb565b820191906000526020600020905b8154815290600101906020018083116112de57829003601f168201915b50505050509350828054600181600116156101000203166002900480601f0160208091040260200160405190810160405280929190818152602001828054600181600116156101000203166002900480156113975780601f1061136c57610100808354040283529160200191611397565b820191906000526020600020905b81548152906001019060200180831161137a57829003601f168201915b505050505092509850985098509850985098509850985050919395975091939597565b6000808054905090506113cb611991565b6040518061010001604052803373ffffffffffffffffffffffffffffffffffffffff16815260200188815260200187815260200142815260200185815260200184815260200160008152602001600081525090506000819080600181540180825580915050906001820390600052602060002090600a02016000909192909190915060008201518160000160006101000a81548173ffffffffffffffffffffffffffffffffffffffff021916908373ffffffffffffffffffffffffffffffffffffffff16021790555060208201518160010190805190602001906114b0929190611911565b5060408201518160020190805190602001906114cd929190611911565b506060820151816003015560808201518160040190805190602001906114f4929190611911565b5060a0820151816005019080519060200190611511929190611911565b5060c0820151816006015560e08201518160070155505050600260003373ffffffffffffffffffffffffffffffffffffffff1673ffffffffffffffffffffffffffffffffffffffff1681526020019081526020016000206000018290806001815401808255809150509060018203906000526020600020016000909192909190915055507fe081f0024702d6dc1d6b8e2f132c350199f960675d63e4b7b584284bff50293e8282602001518360400151846060015185608001518660a00151604051808781526020018060200180602001868152602001806020018060200185810385528a818151815260200191508051906020019080838360005b8381101561162857808201518184015260208101905061160d565b50505050905090810190601f1680156116555780820380516001836020036101000a031916815260200191505b50858103845289818151815260200191508051906020019080838360005b8381101561168e578082015181840152602081019050611673565b50505050905090810190601f1680156116bb5780820380516001836020036101000a031916815260200191505b50858103835287818151815260200191508051906020019080838360005b838110156116f45780820151818401526020810190506116d9565b50505050905090810190601f1680156117215780820380516001836020036101000a031916815260200191505b50858103825286818151815260200191508051906020019080838360005b8381101561175a57808201518184015260208101905061173f565b50505050905090810190601f1680156117875780820380516001836020036101000a031916815260200191505b509a505050505050505050505060405180910390a150505050505050565b600080600083815481106117b557fe5b90600052602060002090600a0201905060008160090160008081526020019081526020016000209050806000015492505050919050565b6060600260003373ffffffffffffffffffffffffffffffffffffffff1673ffffffffffffffffffffffffffffffffffffffff16815260200190815260200160002060010180548060200260200160405190810160405280929190818152602001828054801561187a57602002820191906000526020600020905b815481526020019060010190808311611866575b5050505050905090565b6000806000838154811061189457fe5b90600052602060002090600a020190503373ffffffffffffffffffffffffffffffffffffffff168160000160009054906101000a900473ffffffffffffffffffffffffffffffffffffffff1673ffffffffffffffffffffffffffffffffffffffff16141561190657600191505061190c565b60009150505b919050565b828054600181600116156101000203166002900490600052602060002090601f016020900481019282601f1061195257805160ff1916838001178555611980565b82800160010185558215611980579182015b8281111561197f578251825591602001919060010190611964565b5b50905061198d91906119ec565b5090565b604051806101000160405280600073ffffffffffffffffffffffffffffffffffffffff168152602001606081526020016060815260200160008152602001606081526020016060815260200160008152602001600081525090565b611a0e91905b80821115611a0a5760008160009055506001016119f2565b5090565b9056fea265627a7a72315820710f51703a5cefb897a0b5df41b9ad35ba94fd438ca2049b50ed585114ef4ae964736f6c63430005100032",
  "source": "// SPDX-License-Identifier: MIT\npragma solidity ^0.5.16;\n//pragma experimental ABIEncoderV2;\n\ncontract fileTransfer{\n    struct OptFile{\n        uint[] uploadFile;//\n        uint[] downloadFile;//\n        uint[] commentedFile;//\n    }\n\n    struct File{\n        address owner;//\n        string nameWriter;//\n        string style;//\n        uint uploadAge;//\n        string intro;//\n        string cover;//\n\n        uint score;//\n        uint comment;//\n\n        mapping(uint => Comment) comments;//\n        mapping(uint => DownloadNums) downloadNums;//\n    }\n\n    struct  Comment{\n        address commentator; //\n        uint date; // \n        uint score; //\n        string content; //\n    }\n\n    struct DownloadNums{\n        uint downloadNum; //\n    }\n\n    File[] files;\n    uint tempNum = 1;\n    mapping(address => OptFile) FilesPool;\n    \n    //\n    event publishFileSuccess(\n        uint id, \n        string nameWriter, \n        string style, \n        uint uploadAge,\n        string intro, \n        string cover\n        );\n\n    //\n    event evaluateSuccess(uint id,address addr,uint score);\n\n    //\n    event  downloadSuccess(uint id, address addr);\n\n    //\n    function getDownloadFile() public view returns(uint[] memory){\n        return FilesPool[msg.sender].downloadFile;\n    }\n\n    //\n    function getCommentFile() public view returns(uint[] memory){\n        return FilesPool[msg.sender].commentedFile;\n    }\n \n    //\n    function getPublishFile() public view returns(uint[] memory){\n        return FilesPool[msg.sender].uploadFile;\n    }\n\n    //\n    function getFileLength() public view returns(uint){\n        return files.length;\n    }\n\n    //\n    function getCommentLength(uint id) public view returns (uint) {\n        return files[id].comment;\n    }\n\n    //\n    function getDownloadNums(uint id) public view returns(uint){\n        File storage file = files[id];\n        DownloadNums storage d = file.downloadNums[0];\n        return d.downloadNum; \n    }\n\n    //\n    function getFilesInfo(uint id) public view returns(\n        address, \n        string memory, \n        string memory, \n        uint,\n        string memory,\n        string memory, \n        uint, \n        uint){\n        require(id < files.length);\n        //,\n        File storage file = files[id];\n        return (file.owner,file.nameWriter,file.style,file.uploadAge,file.intro,file.cover,file.score,file.comment);\n    }\n\n    //\n    function getCommentInfo(uint fileId,uint commentId) public view returns(\n        address, \n        uint, \n        uint, \n        string memory){\n        require(fileId < files.length);\n        require(commentId < files[fileId].comment);\n        Comment storage c = files[fileId].comments[commentId];\n        return (c.commentator, c.date, c.score,c.content);\n    }\n\n    //  \n    function isEvaluated(uint id) public view returns (bool) {\n        File storage file = files[id];\n        for(uint i = 0; i < file.comment; i++)\n            if(file.comments[i].commentator == msg.sender)\n                return true; // \n        return false; // \n    }\n\n    function isMyFile(uint id) public view returns(bool){\n        File storage file = files[id];\n        if(file.owner == msg.sender)\n            return true;\n        return false;\n    }\n\n    //\n    function publishFileInfo(\n        string memory nameWriter, \n        string memory style, \n        uint,\n        string memory intro,\n        string memory cover) \n        public {\n        uint id = files.length;\n        File memory file = File(msg.sender,nameWriter,style,block.timestamp,intro,cover,0,0);\n        files.push(file);\n        FilesPool[msg.sender].uploadFile.push(id);\n        emit publishFileSuccess(id,file.nameWriter,file.style,file.uploadAge,file.intro,file.cover);\n    }\n\n    //\n    function evaluate(uint id, uint score, string memory content) public{\n        require(id < files.length);\n        // \n        File storage file = files[id];\n        //require(file.owner != msg.sender && !isEvaluated(id)); // \n        require(0 <= score && score <= 10); // \n        // \n        file.score += score;\n        file.comments[file.comment++] = Comment(msg.sender, now, score, content);\n        FilesPool[msg.sender].commentedFile.push(id);\n        emit evaluateSuccess(id, msg.sender, file.score);\n    }\n\n    //\n    function downloadFile(uint id) public{\n        require(id < files.length);\n        File storage file = files[id];\n        //require(file.owner != msg.sender && !isBorrowed(id)); // \n        file.downloadNums[0] = DownloadNums(tempNum++);\n        FilesPool[msg.sender].downloadFile.push(id);\n        emit  downloadSuccess(id, msg.sender);\n\n    }\n\n    //\n    function hashCompareInternal(string memory a, string memory b) internal returns (bool) {\n        return keccak256(abi.encodePacked(a)) == keccak256(abi.encodePacked(b));\n    }\n\n    function() external {\n        revert();\n    }\n}\n",
  "sourcePath": "/home/truffle/react_node_conctract/contracts/fileTransfer.sol",
  "compiler": {
    "name": "solc",
    "version": "0.5.16+commit.9c3226ce.Emscripten.clang"
  },
  "schemaVersion": "3.4.6",
  "updatedAt": "2022-04-10T08:21:44.863Z",
  "networkType": "ethereum",
  "devdoc": {
    "methods": {}
  },
  "userdoc": {
    "methods": {}
  }
}